:020000040800F2
:1000000000280020711400080114000807140008DB
:100010000D14000813140008191400080000000053
:100020000000000000000000000000001F14000895
:100030002B140008000000003714000843140008C7
:10004000B9140008B9140008B9140008B91400085C
:10005000B9140008B9140008B9140008B91400084C
:10006000B9140008B9140008B9140008B91400083C
:10007000B9140008B9140008B9140008B91400082C
:10008000B9140008B9140008B9140008B91400081C
:10009000B9140008B9140008B9140008B91400080C
:1000A000B9140008B9140008B9140008B9140008FC
:1000B00051140008B914000800000000B914000829
:1000C000B91400080000000000000000B914000886
:1000D00000000000B9140008B91400080000000076
:1000E000B9140008B9140008B91400080000000091
:1000F0000000000000000000000000000000000000
:0C01000000000000000000005FF808F1A3
:10010C0010B5054C237833B9044B13B10448AFF345
:10011C0000800123237010BD40000020000000006F
:10012C00102B000808B5034B1BB103490348AFF370
:10013C00008008BD0000000044000020102B0008C7
:10014C0080B400AF064B1B68012B04D1044B00227A
:10015C001A60012300E000231846BD4680BC70479E
:10016C005C00002080B400AF064B1B68012B04D14F
:10017C00044B00221A60012300E000231846BD4600
:10018C0080BC70476000002080B400AF064B1B6839
:10019C00012B04D1044B00221A60012300E0002340
:1001AC001846BD4680BC70476400002080B400AF88
:1001BC00064B1B68012B04D1044B00221A6001234F
:1001CC0000E000231846BD4680BC70476C00002040
:1001DC0080B400AF064B1B68012B04D1044B0022EA
:1001EC001A60012300E000231846BD4680BC70470E
:1001FC007000002080B582B000AF00237B6034E13A
:10020C009E4A7B6852F823209D497B6841F8232045
:10021C009C4A7B6852F8232098497B6841F823203C
:10022C007B68002B52D14FF48071974801F02AFC67
:10023C0003461946934A7B6842F82310904A7B6820
:10024C0052F823208D497B6851F823309A423DD1D6
:10025C008A4A7B6852F823208A497B6851F82330FC
:10026C009A4233D1894A7B6852F8232085497B68AE
:10027C0051F823309A4214D0824A7B6852F82320DA
:10028C0082497B6841F823207E4A7B6852F82330F0
:10029C00002B1BD17E4B01221A607E4BC8221A60A8
:1002AC0014E0784A7B6852F82330002B0ED1794B3E
:1002BC001B68013B774A1360764B1B68002B05D1FA
:1002CC00754B01221A60734BC8221A607B68012B94
:1002DC0062D16A4A7B6852F8232069497B6841F8ED
:1002EC002320684A7B6852F8232064497B6841F8D4
:1002FC0023204FF40071644801F0C4FB03461946F7
:10030C00604A7B6842F823105D4A7B6852F82320D0
:10031C005A497B6851F823309A423DD1574A7B6841
:10032C0052F8232057497B6851F823309A4233D135
:10033C00564A7B6852F8232052497B6851F8233087
:10034C009A4214D04F4A7B6852F823204F497B685D
:10035C0041F823204B4A7B6852F82330002B1BD1E9
:10036C004E4B01221A604B4BC8221A6014E0454ACE
:10037C007B6852F82330002B0ED1464B1B68013B97
:10038C00444A1360434B1B68002B05D1444B01229C
:10039C001A60404BC8221A607B68022B62D1374A24
:1003AC007B6852F8232036497B6841F82320354A74
:1003BC007B6852F8232031497B6841F823204FF4A5
:1003CC008061314801F05EFB034619462D4A7B687B
:1003DC0042F823102A4A7B6852F8232027497B686D
:1003EC0051F823309A423DD1244A7B6852F823209D
:1003FC0024497B6851F823309A4233D1234A7B68D5
:10040C0052F823201F497B6851F823309A4214D0AC
:10041C001C4A7B6852F823201C497B6841F8232036
:10042C00184A7B6852F82330002B1BD11D4B01223C
:10043C001A60184BC8221A6014E0124A7B6852F8F2
:10044C002330002B0ED1134B1B68013B114A136058
:10045C00104B1B68002B05D1134B01221A600D4B5E
:10046C00C8221A607B6801337B607B68022B7FF7A4
:10047C00C7AE00BF00BF0837BD4680BD0C000020D2
:10048C00000000201800002000080140240000207B
:10049C005C0000203000002068000020600000207C
:1004AC006C000020640000207000002080B582B039
:1004BC0000AF78607B68002B22D100220121BD485F
:1004CC0001F0F7FA00220221BA4801F0F2FA0022F8
:1004DC000421B84801F0EDFA00220821B54801F0DA
:1004EC00E8FA00221021B34801F0E3FA002220219F
:1004FC00B04801F0DEFA01224021AE4801F0D9FAF1
:10050C007B68012B22D101220121AA4801F0D1FAEA
:10051C0000220221A74801F0CCFA00220421A548B0
:10052C0001F0C7FA01220821A24801F0C2FA012207
:10053C001021A04801F0BDFA012220219D4801F0B4
:10054C00B8FA012240219B4801F0B3FA7B68022BD8
:10055C0022D100220121974801F0ABFA002202219E
:10056C00944801F0A6FA01220421924801F0A1FA64
:10057C00002208218F4801F09CFA002210218D489E
:10058C0001F097FA012220218A4801F092FA002208
:10059C004021884801F08DFA7B68032B22D1002280
:1005AC000121844801F085FA00220221814801F0E2
:1005BC0080FA002204217F4801F07BFA00220821F6
:1005CC007C4801F076FA012210217A4801F071FA88
:1005DC0001222021774801F06CFA00224021754855
:1005EC0001F067FA7B68042B22D1012201217148AA
:1005FC0001F05FFA002202216E4801F05AFA002243
:10060C0004216C4801F055FA01220821694801F0D7
:10061C0050FA01221021674801F04BFA00222021E8
:10062C00644801F046FA00224021624801F041FA88
:10063C007B68052B22D1002201215E4801F039FA9A
:10064C00012202215B4801F034FA002204215948AE
:10065C0001F02FFA00220821564801F02AFA012253
:10066C001021544801F025FA00222021514801F0B4
:10067C0020FA002240214F4801F01BFA7B68062B20
:10068C0022D1002201214B4801F013FA0122022150
:10069C00484801F00EFA00220421464801F009FAFC
:1006AC0000220821434801F004FA0022102141489D
:1006BC0001F0FFF9002220213E4801F0FAF9002256
:1006CC0040213C4801F0F5F97B68072B22D1002230
:1006DC000121384801F0EDF900220221354801F0E2
:1006EC00E8F900220421334801F0E3F90122082142
:1006FC00304801F0DEF9012210212E4801F0D9F921
:10070C00012220212B4801F0D4F901224021294853
:10071C0001F0CFF97B68082B22D10022012125485A
:10072C0001F0C7F900220221224801F0C2F900228F
:10073C000421204801F0BDF9002208211D4801F0D8
:10074C00B8F9002210211B4801F0B3F90022202136
:10075C00184801F0AEF900224021164801F0A9F921
:10076C007B68092B22D100220121124801F0A1F94A
:10077C00002202210F4801F09CF9002204210D48AF
:10078C0001F097F9002208210A4801F092F90122A0
:10079C001021084801F08DF900222021054801F0B4
:1007AC0088F900224021034801F083F900BF083783
:1007BC00BD4680BD000C014080B500AF5A4B1B6894
:1007CC000C2B40F0AC80594B1B68002B11D0584BB4
:1007DC001B68012B0DD1554B1B68013B534A136011
:1007EC00524B1B681846FFF761FE4FF47A7000F00D
:1007FC004DFDFFF7A5FC0346012B06D142F210700C
:10080C0000F044FD484B01221A60FFF7BDFC034683
:10081C00012B18D142F2107000F038FD434B1B68CD
:10082C00012B03D1404B01221A600CE03F4B1B689B
:10083C00013B3E4A13603D4B1B681846FFF736FEE2
:10084C00394B03221A60FFF78DFC0346012B20D194
:10085C0042F2107000F01AFD344B1B68082B0BD1C0
:10086C00324B09221A60314B1B681846FFF71EFEEB
:10087C002D4B04221A600CE02C4B1B6801332B4AC5
:10088C0013602A4B1B681846FFF710FE264B0222FA
:10089C001A60FFF78BFC0346012B1CD142F210703F
:1008AC0000F0F4FC234B1B68012B14D11F4B1B686D
:1008BC0001331E4A13601D4B1B680A2B02D11B4BC4
:1008CC0000221A60194B1B681846FFF7EFFD4FF416
:1008DC007A7000F0BFFCFFF77BFC0346012B20D1A4
:1008EC0042F2107000F0D2FC124B1B68012B18D195
:1008FC000E4B1B68013B0D4A13600C4B1B68B3F18C
:10090C00FF3F02D1094B09221A60084B1B6818469D
:10091C00FFF7CCFD4FF47A7000F09CFC01E000BFB7
:10092C0000E000BF00BF80BD7400002078000020F4
:10093C00900000208800002080B500AFA84B1B68F9
:10094C000A2B00F0A5800B2B40F04781A54B1B68B0
:10095C001846FFF7ABFDA44B1B68012B14D14FF4C9
:10096C007A7000F093FC9F4B1B68002B04D09D4BBE
:10097C001B68013B9B4A13609A4B1B681846FFF798
:10098C0095FD974B0C221A60FFF710FC0346012BC8
:10099C001CD142F2107000F079FC944B1B68012BB7
:1009AC0014D1904B1B6801338E4A13608D4B1B681E
:1009BC000A2B02D18B4B00221A608A4B1B681846FB
:1009CC00FFF774FD4FF47A7000F044FCFFF700FC65
:1009DC000346012B0AD142F2107000F057FC804BF9
:1009EC000A221A604FF47A7000F034FCFFF7A8FB6F
:1009FC000346012B06D142F2107000F047FC784BF5
:100A0C0001221A60FFF7C0FB0346012B18D142F2FA
:100A1C00107000F03BFC734B1B68012B03D1704B27
:100A2C0001221A600CE06F4B1B68013B6D4A13608E
:100A3C006C4B1B681846FFF739FD694B03221A6093
:100A4C00FFF790FB0346012B40F0C48042F210707C
:100A5C0000F01CFC634B1B68082B0BD1614B09226B
:100A6C001A60604B1B681846FFF720FD5C4B042294
:100A7C001A60AFE05B4B1B6801335A4A1360594B49
:100A8C001B681846FFF712FD554B02221A60A1E0B5
:100A9C00544B1B681846FFF709FD534B1B68012B81
:100AAC0014D14FF47A7000F0F1FB4E4B1B68002B05
:100ABC0004D04C4B1B68013B4A4A1360494B1B68E2
:100ACC001846FFF7F3FC464B0C221A60FFF780FB2D
:100ADC000346012B1DD142F2107000F0D7FB434BA3
:100AEC001B68012B15D13F4B1B68013B3D4A136022
:100AFC003C4B1B68B3F1FF3F02D13A4B09221A6001
:100B0C00384B1B681846FFF7D1FC4FF47A7000F095
:100B1C00A1FBFFF74BFB0346012B0AD142F21070ED
:100B2C0000F0B4FB2E4B0B221A604FF47A7000F0DD
:100B3C0091FBFFF705FB0346012B06D142F2107027
:100B4C0000F0A4FB264B01221A60FFF71DFB0346A5
:100B5C00012B18D142F2107000F098FB214B1B684E
:100B6C00012B03D11E4B01221A600CE01D4B1B689C
:100B7C00013B1C4A13601B4B1B681846FFF796FC85
:100B8C00174B03221A60FFF7EDFA0346012B23D112
:100B9C0042F2107000F07AFB124B1B68082B0BD141
:100BAC00104B09221A600F4B1B681846FFF77EFC8E
:100BBC000B4B04221A600FE00A4B1B680133094AE5
:100BCC001360084B1B681846FFF770FC044B02229D
:100BDC001A6001E000BF00E000BF00BF80BD00BF95
:100BEC007400002078000020900000208800002075
:100BFC0080B500AF964B1B68042B00F2D08101A28C
:100C0C0052F823F0250C00082D0C0008B50C000838
:100C1C00C50D0008D70E00088D4B01221A60C7E1E4
:100C2C008C4B00221A608B4B1B681846FFF73EFC5E
:100C3C00FFF786FA0346012B02D1854B01221A607D
:100C4C00FFF7A2FA0346012B05D1824B09221A6049
:100C5C007F4B04221A60FFF785FA0346012B07D15C
:100C6C007C4B1B6801337B4A1360794B02221A6060
:100C7C00FFF7AEFA0346012B07D1764B1B68013BFD
:100C8C00744A1360724B0A221A60FFF78FFA0346FC
:100C9C00012B40F086816F4B1B6801336D4A13604A
:100CAC006B4B0B221A607CE16A4B1B681846FFF7F2
:100CBC00FDFB694B1B68012B14D14FF47A7000F0CB
:100CCC00E5FA644B1B68002B04D0624B1B68013B9C
:100CDC00604A13605F4B1B681846FFF7E7FB5C4BE1
:100CEC000C221A60FFF73EFA0346012B1BD142F28D
:100CFC00107000F0CBFA574B1B68082B06D1554BE4
:100D0C0009221A60524B04221A600CE0514B1B68EA
:100D1C000133504A13604F4B1B681846FFF7C6FB54
:100D2C004B4B02221A60FFF72FFA0346012B13D10B
:100D3C0042F2107000F0AAFA464B1B68012B03D14B
:100D4C00434B01221A6007E0424B1B68013B414AAE
:100D5C0013603F4B03221A60FFF7F2F90346012B95
:100D6C0006D142F2107000F091FA394B01221A6050
:100D7C00FFF72EFA0346012B0BD142F2107000F054
:100D8C0085FA344B1B68013B324A1360304B0A2204
:100D9C001A60FFF70BFA0346012B40F0048142F274
:100DAC00107000F073FA2B4B1B680133294A136047
:100DBC00274B0B221A60F6E0264B1B681846FFF7F0
:100DCC0075FB254B1B68012B14D14FF47A7000F086
:100DDC005DFA204B1B68002B04D01E4B1B68013B9B
:100DEC001C4A13601B4B1B681846FFF75FFB184B24
:100DFC000C221A60FFF7B6F90346012B16D142F20A
:100E0C00107000F043FA134B1B68082B06D1114BE2
:100E1C0009221A600E4B04221A6007E00D4B1B6866
:100E2C0001330C4A13600A4B02221A60FFF7ACF92B
:100E3C000346012B1AD142F2107000F027FA054B31
:100E4C001B68012B0AD1024B01221A600EE000BF75
:100E5C00740000207800002090000020554B1B6887
:100E6C00013B544A1360544B03221A60FFF768F994
:100E7C000346012B06D142F2107000F007FA4E4BDC
:100E8C0001221A60FFF7A4F90346012B0BD142F2A1
:100E9C00107000F0FBF9474B1B68013B454A13608F
:100EAC00454B0A221A60FFF781F90346012B7CD1CE
:100EBC0042F2107000F0EAF93E4B1B6801333D4AD8
:100ECC0013603D4B0B221A606FE03A4B1B681846BF
:100EDC00FFF7ECFA394B1B68012B14D14FF47A70E5
:100EEC0000F0D4F9334B1B68002B04D0314B1B683A
:100EFC00013B304A13602F4B1B681846FFF7D6FA9C
:100F0C002D4B0C221A60FFF72DF90346012B06D14D
:100F1C0042F2107000F0BAF9274B01221A60FFF769
:100F2C0033F90346012B0BD142F2107000F0AEF9ED
:100F3C00204B1B68013B1F4A13601F4B03221A6096
:100F4C00FFF7FEF80346012B06D142F2107000F0B9
:100F5C009DF9194B01221A60FFF73AF90346012B50
:100F6C000BD142F2107000F091F9124B1B68013B4F
:100F7C00104A1360104B0A221A60FFF717F9034648
:100F8C00012B14D142F2107000F080F9094B1B6850
:100F9C000133084A1360084B0B221A6007E000BFAC
:100FAC0006E000BF04E000BF02E000BF00E000BFAD
:100FBC0000BF80BD7800002074000020900000204D
:100FCC0080B500AF00F074FA00F02EF800F0B4F821
:100FDC0000F066F8104801F0D5F9104B00221A60A9
:100FEC004FF4FA7000F01AF94FF47A7000F032F9FD
:100FFC000B4B1B68012B07D120210A4800F071FD17
:10100C004FF4FA7000F00AF9FFF7F2FDFFF794FCC9
:10101C00FFF7D2FBECE700BF940000207400002027
:10102C00800000200008014080B590B000AF07F1AF
:10103C00180328220021184601F05CFD3B1D0022FC
:10104C001A605A609A60DA601A610223BB6101234C
:10105C00BB621023FB6200237B6307F11803184665
:10106C0000F058FD0346002B01D000F0D1F80F23FF
:10107C007B600023BB600023FB6000233B610023EB
:10108C007B613B1D0021184600F0C4FF0346002B7A
:10109C0001D000F0BDF800BF4037BD4680BD000058
:1010AC0080B586B000AF07F1080300221A605A60C1
:1010BC009A60DA603B4600221A605A601D4B4FF072
:1010CC0080421A601B4B41F63F725A60194B00224A
:1010DC009A60184B0922DA60164B00221A61154BE4
:1010EC0000229A61134801F0FDF80346002B01D051
:1010FC0000F08EF84FF48053BB6007F108031946DB
:10110C000C4801F093FA0346002B01D000F080F854
:10111C0000233B6000237B603B461946054801F0E9
:10112C005BFC0346002B01D000F072F800BF1837AF
:10113C00BD4680BD9400002080B586B000AF07F19D
:10114C00080300221A605A609A60DA60274B9B6988
:10115C00264A43F004039361244B9B6903F0040378
:10116C007B607B68214B9B69204A43F008039361A9
:10117C001E4B9B6903F008033B603B680022202157
:10118C001B4800F096FC0022FF211A4800F091FC4D
:10119C002023BB600123FB6000233B6102237B61A6
:1011AC0007F108031946124800F0F2FAFF23BB605E
:1011BC000123FB6000233B6102237B6107F10803E1
:1011CC0019460C4800F0E4FA4FF4E063BB600023CE
:1011DC00FB6001233B6107F108031946044800F04A
:1011EC00D7FA00BF1837BD4680BD00BF00100240C3
:1011FC0000080140000C014080B582B000AF78605F
:10120C0000F060F8FEF7F6FF00BF0837BD4680BD62
:10121C0080B400AF72B600BFFEE7000080B483B0AC
:10122C0000AF78607B68084A82FB03129210DB17D0
:10123C00D31A064A1360064B00221A6000BF0C3703
:10124C00BD4680BC704700BF676666667C000020A8
:10125C008000002080B483B000AF78607B68084ABF
:10126C0082FB03129210DB17D31A064A1360064B4B
:10127C0000221A6000BF0C37BD4680BC704700BF0F
:10128C0067666666840000208800002080B483B006
:10129C0000AF78607B68084A82FB03129210DB1760
:1012AC00D31A064A1360064B00221A6000BF0C3793
:1012BC00BD4680BC704700BF676666668C00002028
:1012CC009000002080B400AF194B1B68002B04DD8C
:1012DC00174B1B68013B164A1360154B1B68002B00
:1012EC0002DC144B01221A60134B1B68002B04DD2B
:1012FC00114B1B68013B104A13600F4B1B68002BF2
:10130C0002DC0E4B01221A600D4B1B68002B04DD16
:10131C000B4B1B68013B0A4A1360094B1B68002BE3
:10132C0002DC084B01221A6000BFBD4680BC70472E
:10133C007C00002080000020840000208800002019
:10134C008C0000209000002080B485B000AF154BBD
:10135C009B69144A43F001039361124B9B6903F0A0
:10136C000103BB60BB680F4BDB690E4A43F0805333
:10137C00D3610C4BDB6903F080537B607B680A4BB9
:10138C005B68FB60FB6823F0E063FB60FB6843F089
:10139C008063FB60044AFB68536000BF1437BD4692
:1013AC0080BC7047001002400000014080B584B042
:1013BC0000AF78607B681B68B3F1804F13D10C4B86
:1013CC00DB690B4A43F00103D361094BDB6903F082
:1013DC000103FB60FB68002200211C2000F0A1F936
:1013EC001C2000F0BAF900BF1037BD4680BD00BF0D
:1013FC000010024080B400AFFEE780B400AFFEE7FF
:10140C0080B400AFFEE780B400AFFEE780B400AF5D
:10141C00FEE780B400AF00BFBD4680BC704780B40F
:10142C0000AF00BFBD4680BC704780B400AF00BFAA
:10143C00BD4680BC704780B500AF00F07FF800BFA0
:10144C0080BD000080B500AF024800F0E7FF00BF90
:10145C0080BD00BF9400002080B400AF00BFBD462B
:10146C0080BC70470C480D490D4A002302E0D4584B
:10147C00C4500433C4188C42F9D30A4A0A4C0023D2
:10148C0001E013600432A242FBD3FFF7E5FF01F049
:10149C000DFBFFF795FD7047000000204000002079
:1014AC00502B000840000020E0000020FEE7000068
:1014BC0080B500AF084B1B68074A43F0100313605C
:1014CC00032000F023F90F2000F008F8FFF73CFF91
:1014DC000023184680BD00BF0020024080B582B0BA
:1014EC0000AF7860124B1A68124B1B7819464FF4F8
:1014FC007A73B3FBF1F3B2FBF3F3184600F03BF94C
:10150C000346002B01D001230EE07B680F2B0AD879
:10151C00002279684FF0FF3000F003F9064A7B682F
:10152C001360002300E0012318460837BD4680BD38
:10153C00340000203C0000203800002080B400AFB4
:10154C00054B1B781A46054B1B681344034A136062
:10155C0000BFBD4680BC70473C000020DC00002072
:10156C0080B400AF024B1B681846BD4680BC704768
:10157C00DC00002080B485B000AF78607B6803F09D
:10158C000703FB600C4BDB68BB60BA684FF6FF03CC
:10159C001340BB60FB681A02BB68134343F0BF6384
:1015AC0043F40033BB60044ABB68D36000BF1437FC
:1015BC00BD4680BC704700BF00ED00E080B400AFBA
:1015CC00044BDB681B0A03F007031846BD4680BCBE
:1015DC00704700BF00ED00E080B483B000AF03465D
:1015EC00FB7197F90730002B0BDBFB7903F01F0223
:1015FC00064997F907305B09012000FA02F241F81D
:10160C00232000BF0C37BD4680BC704700E100E0D2
:10161C0080B483B000AF03463960FB7197F9073093
:10162C00002B0ADB3B68DAB20C4997F90730120140
:10163C00D2B20B4483F800230AE03B68DAB20849C3
:10164C00FB7903F00F03043B1201D2B20B441A7660
:10165C0000BF0C37BD4680BC704700BF00E100E006
:10166C0000ED00E080B489B000AFF860B9607A603A
:10167C00FB6803F00703FB61FB69C3F10703042B51
:10168C0028BF0423BB61FB690433062B02D9FB6919
:10169C00033B00E000237B614FF0FF32BB6902FA91
:1016AC0003F3DA43BB681A407B699A404FF0FF3171
:1016BC007B6901FA03F3D9437B680B40134318464B
:1016CC002437BD4680BC704780B582B000AF7860CF
:1016DC007B68013BB3F1807F01D301230FE00A4A01
:1016EC007B68013B53600F214FF0FF30FFF790FFF9
:1016FC00054B00229A60044B07221A6000231846FF
:10170C000837BD4680BD00BF10E000E080B582B058
:10171C0000AF78607868FFF72DFF00BF0837BD4633
:10172C0080BD80B586B000AF0346B9607A60FB73AC
:10173C0000237B61FFF742FF78617A68B9687869AA
:10174C00FFF790FF024697F90F3011461846FFF746
:10175C005FFF00BF1837BD4680BD80B582B000AFBB
:10176C000346FB7197F907301846FFF735FF00BFAA
:10177C000837BD4680BD80B582B000AF7860786810
:10178C00FFF7A2FF034618460837BD4680BD000090
:10179C0080B48BB000AF7860396000237B6200238B
:1017AC003B6248E101227B6A02FA03F3FB613B686E
:1017BC001B68FA691340BB61BA69FB699A4240F035
:1017CC0037813B685B68A34A93425ED0A14A93423F
:1017DC0075D8A14A934258D09F4A93426FD89F4ADA
:1017EC00934252D09D4A934269D89D4A93424CD021
:1017FC009B4A934263D89B4A934246D0994A934260
:10180C005DD8122B2AD8122B59D801A252F823F0EA
:10181C00971800087118000883180008C5180008EC
:10182C00CB180008CB180008CB180008CB18000800
:10183C00CB180008CB180008CB180008CB180008F0
:10184C00CB180008CB180008CB180008CB180008E0
:10185C00CB180008791800088D180008824A9342AA
:10186C0013D02CE03B68DB683B6229E03B68DB680B
:10187C0004333B6224E03B68DB6808333B621FE0C7
:10188C003B68DB680C333B621AE03B689B68002BBF
:10189C0002D104233B6213E03B689B68012B05D10A
:1018AC0008233B627B68FA691A6109E008233B62F2
:1018BC007B68FA695A6103E000233B6200E000BFD9
:1018CC00BB69FF2B01D87B6801E07B6804337B612B
:1018DC00BB69FF2B02D87B6A9B0002E07B6A083B4A
:1018EC009B003B617B691A680F213B6901FA03F38A
:1018FC00DB431A40396A3B6901FA03F31A437B69EB
:10190C001A603B685B6803F08053002B00F09080FA
:10191C00564B9B69554A43F001039361534B9B69AA
:10192C0003F00103BB60BB68514A7B6A9B0802331E
:10193C0052F82330FB607B6A03F003039B000F22F9
:10194C0002FA03F3DB43FA681340FB607B68494AF5
:10195C0093420DD07B68484A934207D07B68474A34
:10196C00934201D1022304E0032302E0012300E0AF
:10197C0000237A6A02F0030292009340FA68134340
:10198C00FB603B497B6A9B080233FA6841F82320D1
:10199C003B685B6803F48033002B06D0384B1A6825
:1019AC003749BB6913430B6006E0354B1A68BB69BA
:1019BC00DB43334913400B603B685B6803F4003333
:1019CC00002B06D02E4B5A682D49BB6913434B6034
:1019DC0006E02B4B5A68BB69DB43294913404B602B
:1019EC003B685B6803F48013002B06D0244B9A6889
:1019FC002349BB6913438B6006E0214B9A68BB6992
:101A0C00DB431F4913408B603B685B6803F4001396
:101A1C00002B06D01A4BDA681949BB691343CB600B
:101A2C0006E0174BDA68BB69DB4315491340CB6002
:101A3C007B6A01337B623B681A687B6A22FA03F388
:101A4C00002B7FF4AFAE00BF00BF2C37BD4680BC6F
:101A5C00704700BF0000321000003110000022104F
:101A6C0000002110000012100000111000100240A4
:101A7C000000014000080140000C01400010014032
:101A8C000004014080B485B000AF78600B467B80C9
:101A9C007B689A687B881340002B02D00123FB7370
:101AAC0001E00023FB73FB7B18461437BD4680BC5A
:101ABC00704780B483B000AF78600B467B801346D0
:101ACC007B707B78002B03D07A887B681A6103E0EB
:101ADC007B881A047B681A6100BF0C37BD4680BC3A
:101AEC00704780B485B000AF78600B467B807B6814
:101AFC00DB68FB607A88FB6813401A04FB68D943E7
:101B0C007B880B401A437B681A6100BF1437BD46B3
:101B1C0080BC704780B586B000AF78607B68002BC6
:101B2C0001D101236CE27B681B6803F00103002BDD
:101B3C0000F08780924B5B6803F00C03042B0CD0F5
:101B4C008F4B5B6803F00C03082B12D18C4B5B683A
:101B5C0003F48033B3F5803F0BD1894B1B6803F43E
:101B6C000033002B6CD07B685B68002B68D10123A1
:101B7C0046E27B685B68B3F5803F06D1804B1B68FF
:101B8C007F4A43F4803313602EE07B685B68002B44
:101B9C000CD17B4B1B687A4A23F480331360784B4F
:101BAC001B68774A23F4802313601DE07B685B6815
:101BBC00B3F5A02F0CD1724B1B68714A43F48023F0
:101BCC0013606F4B1B686E4A43F4803313600BE059
:101BDC006B4B1B686A4A23F480331360684B1B6899
:101BEC00674A23F4802313607B685B68002B13D057
:101BFC00FFF7B6FC386108E0FFF7B2FC02463B6920
:101C0C00D31A642B01D90323FAE15D4B1B6803F44F
:101C1C000033002BF0D014E0FFF7A2FC386108E091
:101C2C00FFF79EFC02463B69D31A642B01D90323B0
:101C3C00E6E1534B1B6803F40033002BF0D100E0BA
:101C4C0000BF7B681B6803F00203002B63D04C4B76
:101C5C005B6803F00C03002B0BD0494B5B6803F063
:101C6C000C03082B1CD1464B5B6803F48033002B10
:101C7C0016D1434B1B6803F00203002B05D07B6885
:101C8C001B69012B01D00123BAE13D4B1B6823F0EA
:101C9C00F8027B685B69DB00394913430B603AE05F
:101CAC007B681B69002B20D0364B01221A60FFF792
:101CBC0057FC386108E0FFF753FC02463B69D31A26
:101CCC00022B01D903239BE12D4B1B6803F002036C
:101CDC00002BF0D02A4B1B6823F0F8027B685B6961
:101CEC00DB00274913430B6015E0264B00221A60DA
:101CFC00FFF736FC386108E0FFF732FC02463B691F
:101D0C00D31A022B01D903237AE11D4B1B6803F074
:101D1C000203002BF0D17B681B6803F00803002B37
:101D2C003AD07B689B69002B19D0174B01221A60A3
:101D3C00FFF716FC386108E0FFF712FC02463B691E
:101D4C00D31A022B01D903235AE10D4B5B6A03F022
:101D5C000203002BF0D0012000F0A6FA1CE00A4B85
:101D6C0000221A60FFF7FCFB38610FE0FFF7F8FB6D
:101D7C0002463B69D31A022B08D9032340E100BF6A
:101D8C000010024000004242800442429E4B5B6ABB
:101D9C0003F00203002BE9D17B681B6803F00403FA
:101DAC00002B00F0A6800023FB75974BDB6903F03A
:101DBC008053002B0DD1944BDB69934A43F0805335
:101DCC00D361914BDB6903F08053BB60BB6801238B
:101DDC00FB758E4B1B6803F48073002B18D18B4B57
:101DEC001B688A4A43F480731360FFF7B9FB3861B0
:101DFC0008E0FFF7B5FB02463B69D31A642B01D907
:101E0C000323FDE0814B1B6803F48073002BF0D09F
:101E1C007B68DB68012B06D17B4B1B6A7A4A43F04B
:101E2C00010313622DE07B68DB68002B0CD1764B31
:101E3C001B6A754A23F001031362734B1B6A724AC7
:101E4C0023F0040313621CE07B68DB68052B0CD1C8
:101E5C006D4B1B6A6C4A43F0040313626A4B1B6A9A
:101E6C00694A43F0010313620BE0674B1B6A664A35
:101E7C0023F001031362644B1B6A634A23F00403CF
:101E8C0013627B68DB68002B15D0FFF769FB3861A8
:101E9C000AE0FFF765FB02463B69D31A41F2883230
:101EAC00934201D90323ABE0574B1B6A03F00203A7
:101EBC00002BEED014E0FFF753FB38610AE0FFF77C
:101ECC004FFB02463B69D31A41F28832934201D947
:101EDC00032395E04C4B1B6A03F00203002BEED15D
:101EEC00FB7D012B05D1484BDB69474A23F080531E
:101EFC00D3617B68DB69002B00F08180424B5B680F
:101F0C0003F00C03082B61D07B68DB69022B46D1F4
:101F1C003F4B00221A60FFF723FB386108E0FFF704
:101F2C001FFB02463B69D31A022B01D9032367E03E
:101F3C00354B1B6803F00073002BF0D17B681B6AD8
:101F4C00B3F5803F08D1304B5B6823F400327B68DB
:101F5C009B682D4913434B602B4B5B6823F4741225
:101F6C007B68196A7B685B6A0B43274913434B6098
:101F7C00274B01221A60FFF7F3FA386108E0FFF7EC
:101F8C00EFFA02463B69D31A022B01D9032337E03F
:101F9C001D4B1B6803F00073002BF0D02FE01C4B83
:101FAC0000221A60FFF7DCFA386108E0FFF7D8FA74
:101FBC0002463B69D31A022B01D9032320E0124BB2
:101FCC001B6803F00073002BF0D118E07B68DB6911
:101FDC00012B01D1012313E00B4B5B68FB60FB6809
:101FEC0003F480327B681B6A9A4206D1FB6803F4C7
:101FFC0070127B685B6A9A4201D0012300E00023D7
:10200C0018461837BD4680BD0010024000700040D5
:10201C006000424280B584B000AF786039607B6864
:10202C00002B01D10123D0E06A4B1B6803F007039E
:10203C003A689A4210D9674B1B6823F0070265492E
:10204C003B6813430B60634B1B6803F007033A6850
:10205C009A4201D00123B8E07B681B6803F00203AD
:10206C00002B20D07B681B6803F00403002B05D0E9
:10207C00594B5B68584A43F4E06353607B681B68B8
:10208C0003F00803002B05D0534B5B68524A43F412
:10209C0060535360504B5B6823F0F0027B689B6885
:1020AC004D4913434B607B681B6803F00103002B05
:1020BC0040D07B685B68012B07D1474B1B6803F44E
:1020CC000033002B15D101237FE07B685B68022B6A
:1020DC0007D1414B1B6803F00073002B09D101237E
:1020EC0073E03D4B1B6803F00203002B01D101236D
:1020FC006BE0394B5B6823F003027B685B68364905
:10210C0013434B60FFF72CFAF8600AE0FFF728FA4C
:10211C000246FB68D31A41F28832934201D9032359
:10212C0053E02D4B5B6803F00C027B685B689B00F3
:10213C009A42EBD1274B1B6803F007033A689A428B
:10214C0010D2244B1B6823F0070222493B6813432F
:10215C000B60204B1B6803F007033A689A4201D0CE
:10216C00012332E07B681B6803F00403002B08D0CA
:10217C00194B5B6823F4E0627B68DB6816491343F8
:10218C004B607B681B6803F00803002B09D0124BD3
:10219C005B6823F460527B681B69DB000E491343B8
:1021AC004B6000F021F802460B4B5B681B0903F0F7
:1021BC000F030A49CB5C22FA03F3094A1360094B5B
:1021CC001B681846FFF78AF9002318461037BD46DE
:1021DC0080BD00BF0020024000100240382B0008D8
:1021EC00340000203800002090B48AB000AF2A4B95
:1021FC003C1D0FCB84E80F0040F201233B800023F1
:10220C00FB610023BB6100237B6200237B61002305
:10221C003B62224B5B68FB61FB6903F00C03042BF4
:10222C0002D0082B03D02DE01D4B3B622DE0FB6947
:10223C009B0C03F00F0307F12802134413F8243C02
:10224C007B61FB6903F48033002B13D0134B5B6869
:10225C005B0C03F0010307F12802134413F8283C2C
:10226C00BB617B690E4A02FB03F2BB69B2FBF3F361
:10227C007B6204E07B690B4A02FB03F37B627B6AA3
:10228C003B6202E0064B3B6200BF3B6A18462837B4
:10229C00BD4690BC704700BF282B000800100240C0
:1022AC0000127A0000093D0080B485B000AF786060
:1022BC000A4B1B680A4AA2FB03235B0A7A6802FBDF
:1022CC0003F3FB6000BFFB685A1EFA60002BF9D1C8
:1022DC0000BF00BF1437BD4680BC704734000020DF
:1022EC00D34D621080B582B000AF78607B68002B54
:1022FC0001D1012341E07B6893F83D30DBB2002B28
:10230C0006D17B68002283F83C207868FFF74EF8F2
:10231C007B68022283F83D207B681A687B68043353
:10232C001946104600F06AFA7B68012283F84620B1
:10233C007B68012283F83E207B68012283F83F20D2
:10234C007B68012283F840207B68012283F84120BE
:10235C007B68012283F842207B68012283F84320AA
:10236C007B68012283F844207B68012283F8452096
:10237C007B68012283F83D20002318460837BD46B0
:10238C0080BD000080B485B000AF78607B6893F8A6
:10239C003D30DBB2012B01D0012335E07B680222FA
:1023AC0083F83D207B681B68DA687B681B6842F009
:1023BC000102DA607B681B68164A934209D07B687D
:1023CC001B68B3F1804F04D07B681B68124A9342A0
:1023DC0011D17B681B689B6803F00703FB60FB68EB
:1023EC00062B10D07B681B681A687B681B6842F050
:1023FC0001021A6007E07B681B681A687B681B681F
:10240C0042F001021A60002318461437BD4680BC06
:10241C00704700BF002C01400004004080B582B022
:10242C0000AF78607B681B681B6903F00203022B0A
:10243C0022D17B681B68DB6803F00203022B1BD1E3
:10244C007B681B686FF002021A617B6801221A77A5
:10245C007B681B689B6903F00303002B03D078682F
:10246C0000F0B1F905E0786800F0A4F9786800F0A4
:10247C00B3F97B6800221A777B681B681B6903F031
:10248C000403042B22D17B681B68DB6803F0040374
:10249C00042B1BD17B681B686FF004021A617B68EC
:1024AC0002221A777B681B689B6903F44073002B2C
:1024BC0003D0786800F087F905E0786800F07AF9C5
:1024CC00786800F089F97B6800221A777B681B68B2
:1024DC001B6903F00803082B22D17B681B68DB689F
:1024EC0003F00803082B1BD17B681B686FF00802F4
:1024FC001A617B6804221A777B681B68DB6903F01E
:10250C000303002B03D0786800F05DF905E07868D0
:10251C0000F050F9786800F05FF97B6800221A77B8
:10252C007B681B681B6903F01003102B22D17B689E
:10253C001B68DB6803F01003102B1BD17B681B6836
:10254C006FF010021A617B6808221A777B681B688F
:10255C00DB6903F44073002B03D0786800F033F987
:10256C0005E0786800F026F9786800F035F97B68AA
:10257C0000221A777B681B681B6903F00103012B8F
:10258C000ED17B681B68DB6803F00103012B07D1BC
:10259C007B681B686FF001021A617868FEF72CFEED
:1025AC007B681B681B6903F08003802B0ED17B6852
:1025BC001B68DB6803F08003802B07D17B681B68EA
:1025CC006FF080021A61786800F067FA7B681B680C
:1025DC001B6903F04003402B0ED17B681B68DB6842
:1025EC0003F04003402B07D17B681B686FF040025F
:1025FC001A61786800F0F9F87B681B681B6903F0B6
:10260C002003202B0ED17B681B68DB6803F02003B2
:10261C00202B07D17B681B686FF020021A61786849
:10262C0000F032FA00BF0837BD4680BD80B584B0DB
:10263C0000AF786039607B6893F83C30012B01D196
:10264C000223B3E07B68012283F83C207B680222E2
:10265C0083F83D207B681B689B68FB60FB6823F05C
:10266C007703FB60FB6823F47F43FB607B681B688C
:10267C00FA689A603B681B68B3F5005F3ED0B3F50F
:10268C00005F00F28780B3F5805F00F08580B3F5C2
:10269C00805F7FD8702B1AD0702B7BD8602B50D0DA
:1026AC00602B77D8502B3CD0502B73D8402B58D064
:1026BC00402B6FD8302B64D0302B6BD8202B60D0B4
:1026CC00202B67D8002B5CD0102B5AD062E07B6893
:1026DC0018683B6899683B685A683B68DB6800F08F
:1026EC005CF97B681B689B68FB60FB6843F07703B5
:1026FC00FB607B681B68FA689A604EE07B68186820
:10270C003B6899683B685A683B68DB6800F045F9A0
:10271C007B681B689A687B681B6842F480429A60ED
:10272C003BE07B6818683B6859683B68DB681A4675
:10273C0000F0BCF87B681B685021184600F013F9B8
:10274C002BE07B6818683B6859683B68DB681A4665
:10275C0000F0DAF87B681B686021184600F003F97A
:10276C001BE07B6818683B6859683B68DB681A4655
:10277C0000F09CF87B681B684021184600F0F3F8C9
:10278C000BE07B681A683B681B681946104600F022
:10279C00EAF802E000BF00E000BF7B68012283F88A
:1027AC003D207B68002283F83C200023184610371C
:1027BC00BD4680BD80B483B000AF786000BF0C37DD
:1027CC00BD4680BC704780B483B000AF786000BF5A
:1027DC000C37BD4680BC704780B483B000AF7860C6
:1027EC0000BF0C37BD4680BC704780B483B000AFCF
:1027FC00786000BF0C37BD4680BC704780B485B094
:10280C0000AF786039607B681B68FB607B68254A89
:10281C00934207D07B68B3F1804F03D07B68224A88
:10282C00934208D1FB6823F07003FB603B685B6844
:10283C00FA681343FB607B681A4A934207D07B68A3
:10284C00B3F1804F03D07B68174A934208D1FB68E1
:10285C0023F44073FB603B68DB68FA681343FB604E
:10286C00FB6823F080023B685B691343FB607B6869
:10287C00FA681A603B689A687B68DA623B681A6887
:10288C007B689A627B68074A934203D13B681A695A
:10289C007B681A637B6801225A6100BF1437BD46FE
:1028AC0080BC7047002C01400004004080B487B00D
:1028BC0000AFF860B9607A60FB681B6A7B61FB68EB
:1028CC001B6A23F00102FB681A62FB689B693B617F
:1028DC003B6923F0F0033B617B681B013A691343AE
:1028EC003B617B6923F00A037B617A69BB68134304
:1028FC007B61FB683A699A61FB687A691A6200BF6E
:10290C001C37BD4680BC704780B487B000AFF86000
:10291C00B9607A60FB681B6A23F01002FB681A62CC
:10292C00FB689B697B61FB681B6A3B617B6923F4D9
:10293C0070437B617B681B037A6913437B613B6942
:10294C0023F0A0033B61BB681B013A6913433B6155
:10295C00FB687A699A61FB683A691A6200BF1C3796
:10296C00BD4680BC704780B485B000AF78603960DC
:10297C007B689B68FB60FB6823F07003FB603A6824
:10298C00FB68134343F00703FB607B68FA689A60AB
:10299C0000BF1437BD4680BC704780B487B000AF11
:1029AC00F860B9607A603B60FB689B687B617B690F
:1029BC0023F47F437B613B681A027B681A43BB6834
:1029CC0013437A6913437B61FB687A699A6000BF91
:1029DC001C37BD4680BC704780B485B000AF7860B2
:1029EC0039607B6893F83C30012B01D1022341E024
:1029FC007B68012283F83C207B68022283F83D200F
:102A0C007B681B685B68FB607B681B689B68BB60B2
:102A1C00FB6823F07003FB603B681B68FA68134388
:102A2C00FB607B681B68FA685A607B681B68144AF9
:102A3C00934209D07B681B68B3F1804F04D07B684C
:102A4C001B68104A93420CD1BB6823F08003BB6017
:102A5C003B685B68BA681343BB607B681B68BA68E9
:102A6C009A607B68012283F83D207B68002283F802
:102A7C003C20002318461437BD4680BC704700BF6D
:102A8C00002C01400004004080B483B000AF78609B
:102A9C0000BF0C37BD4680BC704780B483B000AF1C
:102AAC00786000BF0C37BD4680BC704770B50026FF
:102ABC000C4D0D4C641BA410A64209D100F022F859
:102ACC0000260A4D0A4C641BA410A64205D170BD09
:102ADC0055F8043B98470136EEE755F8043B984708
:102AEC000136F2E7482B0008482B0008482B000859
:102AFC004C2B000803460244934200D1704703F864
:102B0C00011BF9E7F8B500BFF8BC08BC9E4670473E
:0C2B1C00F8B500BFF8BC08BC9E4670472E
:102B280002030405060708090A0B0C0D0E0F101006
:102B38000000000000000000010203040607080965
:042B4800310100084F
:042B4C000D0100086F
:102B50000100000001000000010000000100000071
:102B60000100000001000000010000000100000061
:102B70000100000001000000010000000100000051
:102B8000C80000000024F400100000000100000054
:04000005080014716A
:00000001FF
